{
  "contractName": "libraryExample",
  "abi": [
    {
      "constant": true,
      "inputs": [
        {
          "name": "n",
          "type": "int256"
        }
      ],
      "name": "CalculateExponential",
      "outputs": [
        {
          "name": "",
          "type": "uint256"
        }
      ],
      "payable": false,
      "stateMutability": "view",
      "type": "function"
    }
  ],
  "bytecode": "0x608060405234801561001057600080fd5b5061025f806100206000396000f300608060405260043610610041576000357c0100000000000000000000000000000000000000000000000000000000900463ffffffff168063cfa53d4114610046575b600080fd5b34801561005257600080fd5b5061007160048036038101908080359060200190929190505050610087565b6040518082815260200191505060405180910390f35b6000808268010000000000000000029050600083121561016e57680100000000000000008173__Math__________________________________63e46751e390916040518263ffffffff167c01000000000000000000000000000000000000000000000000000000000281526004018082815260200191505060206040518083038186803b15801561011857600080fd5b505af415801561012c573d6000803e3d6000fd5b505050506040513d602081101561014257600080fd5b8101908080519060200190929190505050670de0b6b3a76400000281151561016657fe5b04915061022d565b680100000000000000008173__Math__________________________________63e46751e390916040518263ffffffff167c01000000000000000000000000000000000000000000000000000000000281526004018082815260200191505060206040518083038186803b1580156101e557600080fd5b505af41580156101f9573d6000803e3d6000fd5b505050506040513d602081101561020f57600080fd5b810190808051906020019092919050505081151561022957fe5b0491505b509190505600a165627a7a72305820b848ec836ff700f43ac39757785b890f1656ae45c405401edcc45d894f206ed20029",
  "source": "pragma solidity ^0.4.24;\nimport \"./Math.sol\";\n\ncontract libraryExample{\n\nusing Math for *;\n\n/*Calculates e^x for positve and negative input n\nIn the case where x is less that 0 so taht e^x<1 the result is multiplied by 10**18 to account for decimal places\n*/\nfunction CalculateExponential(int n) constant returns(uint){\n  int input=0x10000000000000000*n;\n    if(n<0){\n      return (((10**18)*(input.exp()))/0x10000000000000000);\n\n    }\n    else {\n      return ((input.exp())/0x10000000000000000);\n    }\n}\n\n\n}\n",
  "sourcePath": "/home/jjj/IPFS/gitupload/EthereumBounty/contracts/LibraryDemo.sol",
  "compiler": {
    "name": "solc",
    "version": "0.4.24+commit.e67f0147.Emscripten.clang"
  },
  "schemaVersion": "2.0.1",
  "updatedAt": "2018-08-27T21:04:30.951Z"
}