{
  "contractName": "PhotoBounty",
  "abi": [
    {
      "inputs": [
        {
          "name": "VI",
          "type": "uint256"
        },
        {
          "name": "AI",
          "type": "uint256"
        },
        {
          "name": "TI",
          "type": "uint256"
        }
      ],
      "payable": false,
      "stateMutability": "nonpayable",
      "type": "constructor"
    },
    {
      "constant": false,
      "inputs": [],
      "name": "cancelCreation",
      "outputs": [],
      "payable": false,
      "stateMutability": "nonpayable",
      "type": "function"
    },
    {
      "constant": false,
      "inputs": [
        {
          "name": "_payout",
          "type": "uint256"
        },
        {
          "name": "Start",
          "type": "uint256"
        },
        {
          "name": "End",
          "type": "uint256"
        },
        {
          "name": "_judge",
          "type": "address"
        },
        {
          "name": "_name",
          "type": "string"
        },
        {
          "name": "_info",
          "type": "string"
        }
      ],
      "name": "CreateBounty",
      "outputs": [],
      "payable": true,
      "stateMutability": "payable",
      "type": "function"
    },
    {
      "constant": false,
      "inputs": [
        {
          "name": "bounty",
          "type": "uint256"
        },
        {
          "name": "_info",
          "type": "string"
        }
      ],
      "name": "SetInfo",
      "outputs": [],
      "payable": false,
      "stateMutability": "nonpayable",
      "type": "function"
    },
    {
      "constant": false,
      "inputs": [
        {
          "name": "user",
          "type": "address"
        },
        {
          "name": "bounty",
          "type": "uint256"
        }
      ],
      "name": "RegisterParticipant",
      "outputs": [],
      "payable": false,
      "stateMutability": "nonpayable",
      "type": "function"
    },
    {
      "constant": false,
      "inputs": [
        {
          "name": "bounty",
          "type": "uint256"
        }
      ],
      "name": "KillBounty",
      "outputs": [],
      "payable": false,
      "stateMutability": "nonpayable",
      "type": "function"
    },
    {
      "constant": false,
      "inputs": [
        {
          "name": "_Bounty",
          "type": "uint256"
        },
        {
          "name": "data",
          "type": "string"
        }
      ],
      "name": "SubmitBounty",
      "outputs": [],
      "payable": false,
      "stateMutability": "nonpayable",
      "type": "function"
    },
    {
      "constant": false,
      "inputs": [
        {
          "name": "bounty",
          "type": "uint256"
        },
        {
          "name": "submission",
          "type": "uint256"
        }
      ],
      "name": "VerifySubmission",
      "outputs": [
        {
          "name": "",
          "type": "address"
        }
      ],
      "payable": false,
      "stateMutability": "nonpayable",
      "type": "function"
    },
    {
      "constant": false,
      "inputs": [
        {
          "name": "bounty",
          "type": "uint256"
        }
      ],
      "name": "disputeClaim",
      "outputs": [],
      "payable": false,
      "stateMutability": "nonpayable",
      "type": "function"
    },
    {
      "constant": false,
      "inputs": [
        {
          "name": "bounty",
          "type": "uint256"
        },
        {
          "name": "data",
          "type": "string"
        }
      ],
      "name": "disputeDataUpload",
      "outputs": [],
      "payable": false,
      "stateMutability": "nonpayable",
      "type": "function"
    },
    {
      "constant": true,
      "inputs": [
        {
          "name": "bounty",
          "type": "uint256"
        }
      ],
      "name": "resolveDisputeTimeOut",
      "outputs": [
        {
          "name": "",
          "type": "bool"
        }
      ],
      "payable": false,
      "stateMutability": "view",
      "type": "function"
    },
    {
      "constant": true,
      "inputs": [
        {
          "name": "bounty",
          "type": "uint256"
        },
        {
          "name": "n",
          "type": "uint256"
        }
      ],
      "name": "GetDisputeData",
      "outputs": [
        {
          "name": "",
          "type": "string"
        }
      ],
      "payable": false,
      "stateMutability": "view",
      "type": "function"
    },
    {
      "constant": false,
      "inputs": [
        {
          "name": "_bounty",
          "type": "uint256"
        },
        {
          "name": "submission",
          "type": "uint256"
        }
      ],
      "name": "ResolveDispute",
      "outputs": [],
      "payable": false,
      "stateMutability": "nonpayable",
      "type": "function"
    },
    {
      "constant": true,
      "inputs": [
        {
          "name": "_bounty",
          "type": "uint256"
        },
        {
          "name": "submission",
          "type": "uint256"
        }
      ],
      "name": "ViewSubmision",
      "outputs": [
        {
          "name": "",
          "type": "string"
        },
        {
          "name": "",
          "type": "address"
        },
        {
          "name": "",
          "type": "uint256"
        }
      ],
      "payable": false,
      "stateMutability": "view",
      "type": "function"
    },
    {
      "constant": false,
      "inputs": [
        {
          "name": "bounty",
          "type": "uint256"
        }
      ],
      "name": "WithDrawReward",
      "outputs": [],
      "payable": false,
      "stateMutability": "nonpayable",
      "type": "function"
    },
    {
      "constant": true,
      "inputs": [
        {
          "name": "_bounty",
          "type": "uint256"
        }
      ],
      "name": "GetBountyDetails",
      "outputs": [
        {
          "name": "",
          "type": "address"
        },
        {
          "name": "",
          "type": "address"
        },
        {
          "name": "",
          "type": "string"
        },
        {
          "name": "",
          "type": "uint256"
        },
        {
          "name": "",
          "type": "uint256"
        },
        {
          "name": "",
          "type": "uint256"
        },
        {
          "name": "",
          "type": "uint256"
        },
        {
          "name": "",
          "type": "string"
        },
        {
          "name": "",
          "type": "bool"
        },
        {
          "name": "",
          "type": "uint256"
        },
        {
          "name": "",
          "type": "address"
        }
      ],
      "payable": false,
      "stateMutability": "view",
      "type": "function"
    },
    {
      "constant": true,
      "inputs": [
        {
          "name": "a",
          "type": "address"
        }
      ],
      "name": "getCreatedBounties",
      "outputs": [
        {
          "name": "",
          "type": "uint256[]"
        }
      ],
      "payable": false,
      "stateMutability": "view",
      "type": "function"
    },
    {
      "constant": true,
      "inputs": [
        {
          "name": "a",
          "type": "address"
        }
      ],
      "name": "gettotalCreatedBounties",
      "outputs": [
        {
          "name": "",
          "type": "uint256"
        }
      ],
      "payable": false,
      "stateMutability": "view",
      "type": "function"
    },
    {
      "constant": true,
      "inputs": [
        {
          "name": "a",
          "type": "address"
        }
      ],
      "name": "getRegisterdBounties",
      "outputs": [
        {
          "name": "",
          "type": "uint256[]"
        }
      ],
      "payable": false,
      "stateMutability": "view",
      "type": "function"
    },
    {
      "constant": true,
      "inputs": [
        {
          "name": "a",
          "type": "address"
        }
      ],
      "name": "gettotalRegisteredBounties",
      "outputs": [
        {
          "name": "",
          "type": "uint256"
        }
      ],
      "payable": false,
      "stateMutability": "view",
      "type": "function"
    },
    {
      "constant": true,
      "inputs": [
        {
          "name": "bounty",
          "type": "uint256"
        }
      ],
      "name": "totalDisputesUploaded",
      "outputs": [
        {
          "name": "",
          "type": "uint256"
        }
      ],
      "payable": false,
      "stateMutability": "view",
      "type": "function"
    },
    {
      "constant": true,
      "inputs": [
        {
          "name": "a",
          "type": "address"
        }
      ],
      "name": "getGamesToJudge",
      "outputs": [
        {
          "name": "",
          "type": "uint256[]"
        }
      ],
      "payable": false,
      "stateMutability": "view",
      "type": "function"
    },
    {
      "constant": true,
      "inputs": [
        {
          "name": "a",
          "type": "address"
        }
      ],
      "name": "gettotalGamesToJudge",
      "outputs": [
        {
          "name": "",
          "type": "uint256"
        }
      ],
      "payable": false,
      "stateMutability": "view",
      "type": "function"
    },
    {
      "constant": true,
      "inputs": [
        {
          "name": "_bounty",
          "type": "uint256"
        }
      ],
      "name": "getTimeOut",
      "outputs": [
        {
          "name": "",
          "type": "uint256"
        }
      ],
      "payable": false,
      "stateMutability": "view",
      "type": "function"
    },
    {
      "constant": true,
      "inputs": [
        {
          "name": "_bounty",
          "type": "uint256"
        }
      ],
      "name": "wasGameKilled",
      "outputs": [
        {
          "name": "",
          "type": "bool"
        }
      ],
      "payable": false,
      "stateMutability": "view",
      "type": "function"
    },
    {
      "constant": true,
      "inputs": [],
      "name": "wasCanceled",
      "outputs": [
        {
          "name": "",
          "type": "bool"
        }
      ],
      "payable": false,
      "stateMutability": "view",
      "type": "function"
    },
    {
      "constant": true,
      "inputs": [
        {
          "name": "_bounty",
          "type": "uint256"
        }
      ],
      "name": "getTimePeriod",
      "outputs": [
        {
          "name": "",
          "type": "uint256"
        }
      ],
      "payable": false,
      "stateMutability": "view",
      "type": "function"
    }
  ],
  "bytecode": "0x608060405234801561001057600080fd5b5060405160608061322083398101806040528101908080519060200190929190805190602001909291908051906020019092919050505082600081905550816001819055506000600c819055508060028190555033600360016101000a81548173ffffffffffffffffffffffffffffffffffffffff021916908373ffffffffffffffffffffffffffffffffffffffff1602179055506000600360006101000a81548160ff02191690831515021790555050505061314e806100d26000396000f300608060405260043610610154576000357c0100000000000000000000000000000000000000000000000000000000900463ffffffff168063035f762f146101595780631fa48fe114610186578063212c2219146101b35780634762a84b146102005780634c32a47c146102e05780634c39ae38146103785780634ee9b62f146103a757806350479065146103e857806352537e00146103ff578063618edb201461044057806374a30fff146104975780637c6492641461050a5780639302f104146105615780639617f3af1461058e5780639fe7b77b1461063e578063b82822fb146106b1578063bd2b8297146106e8578063c2ac99b314610780578063cec5f0ae146107f7578063cf1d2758146108e1578063d1bf499414610aba578063d3a374fb14610b11578063dd3ffcd414610b56578063e7e3898814610b9b578063f0b5221f14610bdc578063f7f7e26d14610c74575b600080fd5b34801561016557600080fd5b5061018460048036038101908080359060200190929190505050610ce7565b005b34801561019257600080fd5b506101b160048036038101908080359060200190929190505050610e78565b005b3480156101bf57600080fd5b506101fe600480360381019080803573ffffffffffffffffffffffffffffffffffffffff16906020019092919080359060200190929190505050610fef565b005b6102de600480360381019080803590602001909291908035906020019092919080359060200190929190803573ffffffffffffffffffffffffffffffffffffffff169060200190929190803590602001908201803590602001908080601f0160208091040260200160405190810160405280939291908181526020018383808284378201915050505050509192919290803590602001908201803590602001908080601f0160208091040260200160405190810160405280939291908181526020018383808284378201915050505050509192919290505050611212565b005b3480156102ec57600080fd5b50610321600480360381019080803573ffffffffffffffffffffffffffffffffffffffff169060200190929190505050611547565b6040518080602001828103825283818151815260200191508051906020019060200280838360005b83811015610364578082015181840152602081019050610349565b505050509050019250505060405180910390f35b34801561038457600080fd5b5061038d6115de565b604051808215151515815260200191505060405180910390f35b3480156103b357600080fd5b506103d2600480360381019080803590602001909291905050506115f5565b6040518082815260200191505060405180910390f35b3480156103f457600080fd5b506103fd611615565b005b34801561040b57600080fd5b5061042a600480360381019080803590602001909291905050506116cb565b6040518082815260200191505060405180910390f35b34801561044c57600080fd5b50610481600480360381019080803573ffffffffffffffffffffffffffffffffffffffff1690602001909291905050506116e8565b6040518082815260200191505060405180910390f35b3480156104a357600080fd5b5061050860048036038101908080359060200190929190803590602001908201803590602001908080601f0160208091040260200160405190810160405280939291908181526020018383808284378201915050505050509192919290505050611734565b005b34801561051657600080fd5b5061054b600480360381019080803573ffffffffffffffffffffffffffffffffffffffff169060200190929190505050611a00565b6040518082815260200191505060405180910390f35b34801561056d57600080fd5b5061058c60048036038101908080359060200190929190505050611a4c565b005b34801561059a57600080fd5b506105c36004803603810190808035906020019092919080359060200190929190505050611e8d565b6040518080602001828103825283818151815260200191508051906020019080838360005b838110156106035780820151818401526020810190506105e8565b50505050905090810190601f1680156106305780820380516001836020036101000a031916815260200191505b509250505060405180910390f35b34801561064a57600080fd5b506106af60048036038101908080359060200190929190803590602001908201803590602001908080601f0160208091040260200160405190810160405280939291908181526020018383808284378201915050505050509192919290505050611f5a565b005b3480156106bd57600080fd5b506106e6600480360381019080803590602001909291908035906020019092919050505061205f565b005b3480156106f457600080fd5b50610729600480360381019080803573ffffffffffffffffffffffffffffffffffffffff16906020019092919050505061225f565b6040518080602001828103825283818151815260200191508051906020019060200280838360005b8381101561076c578082015181840152602081019050610751565b505050509050019250505060405180910390f35b34801561078c57600080fd5b506107b560048036038101908080359060200190929190803590602001909291905050506122f6565b604051808273ffffffffffffffffffffffffffffffffffffffff1673ffffffffffffffffffffffffffffffffffffffff16815260200191505060405180910390f35b34801561080357600080fd5b5061082c600480360381019080803590602001909291908035906020019092919050505061248b565b60405180806020018473ffffffffffffffffffffffffffffffffffffffff1673ffffffffffffffffffffffffffffffffffffffff168152602001838152602001828103825285818151815260200191508051906020019080838360005b838110156108a4578082015181840152602081019050610889565b50505050905090810190601f1680156108d15780820380516001836020036101000a031916815260200191505b5094505050505060405180910390f35b3480156108ed57600080fd5b5061090c60048036038101908080359060200190929190505050612634565b604051808c73ffffffffffffffffffffffffffffffffffffffff1673ffffffffffffffffffffffffffffffffffffffff1681526020018b73ffffffffffffffffffffffffffffffffffffffff1673ffffffffffffffffffffffffffffffffffffffff168152602001806020018a815260200189815260200188815260200187815260200180602001861515151581526020018581526020018473ffffffffffffffffffffffffffffffffffffffff1673ffffffffffffffffffffffffffffffffffffffff16815260200183810383528c818151815260200191508051906020019080838360005b83811015610a0e5780820151818401526020810190506109f3565b50505050905090810190601f168015610a3b5780820380516001836020036101000a031916815260200191505b50838103825287818151815260200191508051906020019080838360005b83811015610a74578082015181840152602081019050610a59565b50505050905090810190601f168015610aa15780820380516001836020036101000a031916815260200191505b509d505050505050505050505050505060405180910390f35b348015610ac657600080fd5b50610afb600480360381019080803573ffffffffffffffffffffffffffffffffffffffff169060200190929190505050612969565b6040518082815260200191505060405180910390f35b348015610b1d57600080fd5b50610b3c600480360381019080803590602001909291905050506129b5565b604051808215151515815260200191505060405180910390f35b348015610b6257600080fd5b50610b81600480360381019080803590602001909291905050506129df565b604051808215151515815260200191505060405180910390f35b348015610ba757600080fd5b50610bc660048036038101908080359060200190929190505050612a25565b6040518082815260200191505060405180910390f35b348015610be857600080fd5b50610c1d600480360381019080803573ffffffffffffffffffffffffffffffffffffffff169060200190929190505050612c20565b6040518080602001828103825283818151815260200191508051906020019060200280838360005b83811015610c60578082015181840152602081019050610c45565b505050509050019250505060405180910390f35b348015610c8057600080fd5b50610ce560048036038101908080359060200190929190803590602001908201803590602001908080601f0160208091040260200160405190810160405280939291908181526020018383808284378201915050505050509192919290505050612cb7565b005b6000816004600082815260200190815260200160002060010160009054906101000a900473ffffffffffffffffffffffffffffffffffffffff1673ffffffffffffffffffffffffffffffffffffffff163373ffffffffffffffffffffffffffffffffffffffff16141515610d5a57600080fd5b82600460008281526020019081526020016000206008015442101515610d7f57600080fd5b836000151560046000838152602001908152602001600020600b0160009054906101000a900460ff161515141515610db657600080fd5b600460008681526020019081526020016000209350600184600b0160006101000a81548160ff02191690831515021790555060016008600087815260200190815260200160002060006101000a81548160ff0219169083151502179055503373ffffffffffffffffffffffffffffffffffffffff166108fc60046000888152602001908152602001600020600401549081150290604051600060405180830381858888f19350505050158015610e70573d6000803e3d6000fd5b505050505050565b80610e82816129df565b1515610e8d57600080fd5b6001546000546004600085815260200190815260200160002060090154010142111515610eb957600080fd5b60046000838152602001908152602001600020600d0160009054906101000a900473ffffffffffffffffffffffffffffffffffffffff1673ffffffffffffffffffffffffffffffffffffffff163373ffffffffffffffffffffffffffffffffffffffff16141515610f2957600080fd5b6000151560046000848152602001908152602001600020600b0160009054906101000a900460ff161515141515610f5f57600080fd5b600160046000848152602001908152602001600020600b0160006101000a81548160ff0219169083151502179055503373ffffffffffffffffffffffffffffffffffffffff166108fc60046000858152602001908152602001600020600401549081150290604051600060405180830381858888f19350505050158015610fea573d6000803e3d6000fd5b505050565b6000816004600082815260200190815260200160002060010160009054906101000a900473ffffffffffffffffffffffffffffffffffffffff1673ffffffffffffffffffffffffffffffffffffffff163373ffffffffffffffffffffffffffffffffffffffff1614151561106257600080fd5b826000151560046000838152602001908152602001600020600b0160009054906101000a900460ff16151514151561109957600080fd5b836004600082815260200190815260200160002060080154421015156110be57600080fd5b600460008681526020019081526020016000209350600015158460050160008873ffffffffffffffffffffffffffffffffffffffff1673ffffffffffffffffffffffffffffffffffffffff16815260200190815260200160002060009054906101000a900460ff16151514151561113457600080fd5b60018460050160008873ffffffffffffffffffffffffffffffffffffffff1673ffffffffffffffffffffffffffffffffffffffff16815260200190815260200160002060006101000a81548160ff02191690831515021790555060018460030160008282540192505081905550600760008773ffffffffffffffffffffffffffffffffffffffff1673ffffffffffffffffffffffffffffffffffffffff168152602001908152602001600020859080600181540180825580915050906001820390600052602060002001600090919290919091505550505050505050565b61121a612f26565b6000801515600360009054906101000a900460ff16151514151561123d57600080fd5b873414151561124b57600080fd5b610160604051908101604052808673ffffffffffffffffffffffffffffffffffffffff1681526020013373ffffffffffffffffffffffffffffffffffffffff16815260200184815260200160008152602001898152602001888152602001878152602001858152602001600015158152602001600081526020013373ffffffffffffffffffffffffffffffffffffffff1681525091506001600c54019050816004600083815260200190815260200160002060008201518160000160006101000a81548173ffffffffffffffffffffffffffffffffffffffff021916908373ffffffffffffffffffffffffffffffffffffffff16021790555060208201518160010160006101000a81548173ffffffffffffffffffffffffffffffffffffffff021916908373ffffffffffffffffffffffffffffffffffffffff16021790555060408201518160020190805190602001906113a7929190612fc5565b50606082015181600301556080820151816004015560a0820151816008015560c0820151816009015560e082015181600a0190805190602001906113ec929190612fc5565b5061010082015181600b0160006101000a81548160ff02191690831515021790555061012082015181600c015561014082015181600d0160006101000a81548173ffffffffffffffffffffffffffffffffffffffff021916908373ffffffffffffffffffffffffffffffffffffffff160217905550905050600560003373ffffffffffffffffffffffffffffffffffffffff1673ffffffffffffffffffffffffffffffffffffffff16815260200190815260200160002081908060018154018082558091505090600182039060005260206000200160009091929091909150555080600c81905550600660008673ffffffffffffffffffffffffffffffffffffffff1673ffffffffffffffffffffffffffffffffffffffff1681526020019081526020016000208190806001815401808255809150509060018203906000526020600020016000909192909190915055505050505050505050565b6060600560008373ffffffffffffffffffffffffffffffffffffffff1673ffffffffffffffffffffffffffffffffffffffff1681526020019081526020016000208054806020026020016040519081016040528092919081815260200182805480156115d257602002820191906000526020600020905b8154815260200190600101908083116115be575b50505050509050919050565b6000600360009054906101000a900460ff16905090565b6000600a6000838152602001908152602001600020805490509050919050565b600360019054906101000a900473ffffffffffffffffffffffffffffffffffffffff1673ffffffffffffffffffffffffffffffffffffffff163373ffffffffffffffffffffffffffffffffffffffff1614151561167157600080fd5b60001515600360009054906101000a900460ff16151514156116ad576001600360006101000a81548160ff0219169083151502179055506116c9565b6000600360006101000a81548160ff0219169083151502179055505b565b600060096000838152602001908152602001600020549050919050565b6000600660008373ffffffffffffffffffffffffffffffffffffffff1673ffffffffffffffffffffffffffffffffffffffff168152602001908152602001600020805490509050919050565b61173c613045565b6000808460046000828152602001908152602001600020600801544211801561177a5750600460008281526020019081526020016000206009015442105b151561178557600080fd5b856000151560046000838152602001908152602001600020600b0160009054906101000a900460ff1615151415156117bc57600080fd5b600115156004600089815260200190815260200160002060050160003373ffffffffffffffffffffffffffffffffffffffff1673ffffffffffffffffffffffffffffffffffffffff16815260200190815260200160002060009054906101000a900460ff16151514151561182f57600080fd5b60006004600089815260200190815260200160002060070160003373ffffffffffffffffffffffffffffffffffffffff1673ffffffffffffffffffffffffffffffffffffffff1681526020019081526020016000206000015414151561189457600080fd5b6060604051908101604052804281526020018781526020013373ffffffffffffffffffffffffffffffffffffffff168152509450600460008881526020019081526020016000209350600184600c0154019250848460070160003373ffffffffffffffffffffffffffffffffffffffff1673ffffffffffffffffffffffffffffffffffffffff16815260200190815260200160002060008201518160000155602082015181600101908051906020019061194f929190612fc5565b5060408201518160020160006101000a81548173ffffffffffffffffffffffffffffffffffffffff021916908373ffffffffffffffffffffffffffffffffffffffff1602179055509050503384600601600085815260200190815260200160002060006101000a81548173ffffffffffffffffffffffffffffffffffffffff021916908373ffffffffffffffffffffffffffffffffffffffff1602179055508284600c018190555050505050505050565b6000600760008373ffffffffffffffffffffffffffffffffffffffff1673ffffffffffffffffffffffffffffffffffffffff168152602001908152602001600020805490509050919050565b611a54612f26565b8160005460046000838152602001908152602001600020600901540142118015611a9b57506001546000546004600084815260200190815260200160002060090154010142105b1515611aa657600080fd5b826000151560046000838152602001908152602001600020600b0160009054906101000a900460ff161515141515611add57600080fd5b6004600085815260200190815260200160002061016060405190810160405290816000820160009054906101000a900473ffffffffffffffffffffffffffffffffffffffff1673ffffffffffffffffffffffffffffffffffffffff1673ffffffffffffffffffffffffffffffffffffffff1681526020016001820160009054906101000a900473ffffffffffffffffffffffffffffffffffffffff1673ffffffffffffffffffffffffffffffffffffffff1673ffffffffffffffffffffffffffffffffffffffff168152602001600282018054600181600116156101000203166002900480601f016020809104026020016040519081016040528092919081815260200182805460018160011615610100020316600290048015611c425780601f10611c1757610100808354040283529160200191611c42565b820191906000526020600020905b815481529060010190602001808311611c2557829003601f168201915b5050505050815260200160038201548152602001600482015481526020016008820154815260200160098201548152602001600a82018054600181600116156101000203166002900480601f016020809104026020016040519081016040528092919081815260200182805460018160011615610100020316600290048015611d0c5780601f10611ce157610100808354040283529160200191611d0c565b820191906000526020600020905b815481529060010190602001808311611cef57829003601f168201915b50505050508152602001600b820160009054906101000a900460ff16151515158152602001600c8201548152602001600d820160009054906101000a900473ffffffffffffffffffffffffffffffffffffffff1673ffffffffffffffffffffffffffffffffffffffff1673ffffffffffffffffffffffffffffffffffffffff16815250509250600115156004600086815260200190815260200160002060050160003373ffffffffffffffffffffffffffffffffffffffff1673ffffffffffffffffffffffffffffffffffffffff16815260200190815260200160002060009054906101000a900460ff161515141515611e0557600080fd5b60006004600086815260200190815260200160002060070160003373ffffffffffffffffffffffffffffffffffffffff1673ffffffffffffffffffffffffffffffffffffffff1681526020019081526020016000206000015414151515611e6b57600080fd5b6002544201600960008681526020019081526020016000208190555050505050565b6060600a600084815260200190815260200160002082815481101515611eaf57fe5b906000526020600020018054600181600116156101000203166002900480601f016020809104026020016040519081016040528092919081815260200182805460018160011615610100020316600290048015611f4d5780601f10611f2257610100808354040283529160200191611f4d565b820191906000526020600020905b815481529060010190602001808311611f3057829003601f168201915b5050505050905092915050565b6000826004600082815260200190815260200160002060010160009054906101000a900473ffffffffffffffffffffffffffffffffffffffff1673ffffffffffffffffffffffffffffffffffffffff163373ffffffffffffffffffffffffffffffffffffffff16141515611fcd57600080fd5b836000151560046000838152602001908152602001600020600b0160009054906101000a900460ff16151514151561200457600080fd5b8460046000828152602001908152602001600020600801544210151561202957600080fd5b6004600087815260200190815260200160002093508484600201908051906020019061205692919061307d565b50505050505050565b600080836004600082815260200190815260200160002060000160009054906101000a900473ffffffffffffffffffffffffffffffffffffffff1673ffffffffffffffffffffffffffffffffffffffff163373ffffffffffffffffffffffffffffffffffffffff161415156120d357600080fd5b60096000868152602001908152602001600020544210801561210957506000600960008781526020019081526020016000205414155b151561211457600080fd5b60046000868152602001908152602001600020600c0154841115151561213957600080fd5b60046000868152602001908152602001600020925060008414156121c3578260010160009054906101000a900473ffffffffffffffffffffffffffffffffffffffff1683600d0160006101000a81548173ffffffffffffffffffffffffffffffffffffffff021916908373ffffffffffffffffffffffffffffffffffffffff160217905550612258565b82600601600085815260200190815260200160002060009054906101000a900473ffffffffffffffffffffffffffffffffffffffff1691508183600d0160006101000a81548173ffffffffffffffffffffffffffffffffffffffff021916908373ffffffffffffffffffffffffffffffffffffffff160217905550600060096000878152602001908152602001600020819055505b5050505050565b6060600660008373ffffffffffffffffffffffffffffffffffffffff1673ffffffffffffffffffffffffffffffffffffffff1681526020019081526020016000208054806020026020016040519081016040528092919081815260200182805480156122ea57602002820191906000526020600020905b8154815260200190600101908083116122d6575b50505050509050919050565b6000806000846004600082815260200190815260200160002060010160009054906101000a900473ffffffffffffffffffffffffffffffffffffffff1673ffffffffffffffffffffffffffffffffffffffff163373ffffffffffffffffffffffffffffffffffffffff1614151561236c57600080fd5b856000151560046000838152602001908152602001600020600b0160009054906101000a900460ff1615151415156123a357600080fd5b866004600082815260200190815260200160002060090154421180156123e2575060005460046000838152602001908152602001600020600901540142105b15156123ed57600080fd5b60046000898152602001908152602001600020945084600601600088815260200190815260200160002060009054906101000a900473ffffffffffffffffffffffffffffffffffffffff1693508385600d0160006101000a81548173ffffffffffffffffffffffffffffffffffffffff021916908373ffffffffffffffffffffffffffffffffffffffff160217905550839550505050505092915050565b6060600080600060046000878152602001908152602001600020600601600086815260200190815260200160002060009054906101000a900473ffffffffffffffffffffffffffffffffffffffff1690506004600087815260200190815260200160002060070160008273ffffffffffffffffffffffffffffffffffffffff1673ffffffffffffffffffffffffffffffffffffffff168152602001908152602001600020600101816004600089815260200190815260200160002060070160008473ffffffffffffffffffffffffffffffffffffffff1673ffffffffffffffffffffffffffffffffffffffff16815260200190815260200160002060000154828054600181600116156101000203166002900480601f01602080910402602001604051908101604052809291908181526020018280546001816001161561010002031660029004801561261f5780601f106125f45761010080835404028352916020019161261f565b820191906000526020600020905b81548152906001019060200180831161260257829003601f168201915b50505050509250935093509350509250925092565b60008060606000806000806060600080600061264e612f26565b600460008e815260200190815260200160002061016060405190810160405290816000820160009054906101000a900473ffffffffffffffffffffffffffffffffffffffff1673ffffffffffffffffffffffffffffffffffffffff1673ffffffffffffffffffffffffffffffffffffffff1681526020016001820160009054906101000a900473ffffffffffffffffffffffffffffffffffffffff1673ffffffffffffffffffffffffffffffffffffffff1673ffffffffffffffffffffffffffffffffffffffff168152602001600282018054600181600116156101000203166002900480601f0160208091040260200160405190810160405280929190818152602001828054600181600116156101000203166002900480156127b35780601f10612788576101008083540402835291602001916127b3565b820191906000526020600020905b81548152906001019060200180831161279657829003601f168201915b5050505050815260200160038201548152602001600482015481526020016008820154815260200160098201548152602001600a82018054600181600116156101000203166002900480601f01602080910402602001604051908101604052809291908181526020018280546001816001161561010002031660029004801561287d5780601f106128525761010080835404028352916020019161287d565b820191906000526020600020905b81548152906001019060200180831161286057829003601f168201915b50505050508152602001600b820160009054906101000a900460ff16151515158152602001600c8201548152602001600d820160009054906101000a900473ffffffffffffffffffffffffffffffffffffffff1673ffffffffffffffffffffffffffffffffffffffff1673ffffffffffffffffffffffffffffffffffffffff16815250509050806000015181602001518260400151836060015184608001518560a001518660c001518760e001518861010001518961012001518a61014001518898508393509b509b509b509b509b509b509b509b509b509b509b505091939597999b90929496989a50565b6000600560008373ffffffffffffffffffffffffffffffffffffffff1673ffffffffffffffffffffffffffffffffffffffff168152602001908152602001600020805490509050919050565b60006008600083815260200190815260200160002060009054906101000a900460ff169050919050565b6000806001905060006009600085815260200190815260200160002054141515612a1c576009600084815260200190815260200160002054421190505b80915050919050565b6000806000600460008581526020019081526020016000206008015414151515612a4e57600080fd5b60009050600460008481526020019081526020016000206008015442111515612a7657600190505b600460008481526020019081526020016000206008015442118015612ab05750600460008481526020019081526020016000206009015442105b15612aba57600290505b600460008481526020019081526020016000206009015442118015612af8575060005460046000858152602001908152602001600020600901540142105b15612b0257600390505b60005460046000858152602001908152602001600020600901540142118015612b4857506001546000546004600086815260200190815260200160002060090154010142105b15612b5257600490505b60015460005460046000868152602001908152602001600020600901540101421115612b7d57600590505b600481148015612ba157506000600960008581526020019081526020016000205414155b15612bab57600690505b600581148015612bcd5750600960008481526020019081526020016000205442105b15612bd757600790505b600960008481526020019081526020016000205442118015612c0d57506000600960008581526020019081526020016000205414155b15612c1757600890505b80915050919050565b6060600760008373ffffffffffffffffffffffffffffffffffffffff1673ffffffffffffffffffffffffffffffffffffffff168152602001908152602001600020805480602002602001604051908101604052809291908181526020018280548015612cab57602002820191906000526020600020905b815481526020019060010190808311612c97575b50505050509050919050565b8160005460046000838152602001908152602001600020600901540142118015612cfe57506001546000546004600084815260200190815260200160002060090154010142105b1515612d0957600080fd5b826000151560046000838152602001908152602001600020600b0160009054906101000a900460ff161515141515612d4057600080fd5b60006004600086815260200190815260200160002060070160003373ffffffffffffffffffffffffffffffffffffffff1673ffffffffffffffffffffffffffffffffffffffff1681526020019081526020016000206000015414151515612da657600080fd5b600115156004600086815260200190815260200160002060050160003373ffffffffffffffffffffffffffffffffffffffff1673ffffffffffffffffffffffffffffffffffffffff16815260200190815260200160002060009054906101000a900460ff161515141515612e1957600080fd5b60001515600b60003373ffffffffffffffffffffffffffffffffffffffff1673ffffffffffffffffffffffffffffffffffffffff16815260200190815260200160002060009054906101000a900460ff161515141515612e7857600080fd5b600a6000858152602001908152602001600020839080600181540180825580915050906001820390600052602060002001600090919290919091509080519060200190612ec692919061307d565b50506001600b60003373ffffffffffffffffffffffffffffffffffffffff1673ffffffffffffffffffffffffffffffffffffffff16815260200190815260200160002060006101000a81548160ff02191690831515021790555050505050565b61016060405190810160405280600073ffffffffffffffffffffffffffffffffffffffff168152602001600073ffffffffffffffffffffffffffffffffffffffff16815260200160608152602001600081526020016000815260200160008152602001600081526020016060815260200160001515815260200160008152602001600073ffffffffffffffffffffffffffffffffffffffff1681525090565b828054600181600116156101000203166002900490600052602060002090601f016020900481019282601f1061300657805160ff1916838001178555613034565b82800160010185558215613034579182015b82811115613033578251825591602001919060010190613018565b5b50905061304191906130fd565b5090565b6060604051908101604052806000815260200160608152602001600073ffffffffffffffffffffffffffffffffffffffff1681525090565b828054600181600116156101000203166002900490600052602060002090601f016020900481019282601f106130be57805160ff19168380011785556130ec565b828001600101855582156130ec579182015b828111156130eb5782518255916020019190600101906130d0565b5b5090506130f991906130fd565b5090565b61311f91905b8082111561311b576000816000905550600101613103565b5090565b905600a165627a7a723058200138ca64223c24433f7df60db43da79061ccb60e85affded146a0dc6292b02720029",
  "source": "\npragma solidity ^0.4.24;\n/** @title PhotoBounty. */\ncontract PhotoBounty{\n//\nuint validationInterval;\n\nuint arbitrationInterval;\nuint TimeOut;\nbool cancelCreate;\naddress owner;\nmapping(uint=>Bounty) BountyMap;\n\nmapping(address=>uint[]) BountyList;\n\nmapping(address=>uint[]) GamesToJudge;\n\nmapping(address=>uint[]) RegisteredBounties;\nmapping(uint=>bool) killedBounty;\n\nmapping(uint=>uint) DisputeTimeOut;\nmapping(uint=>string[]) DisputeData;\nmapping(address=>bool) DisputeDataUploaded;\nuint totalBounties;\n\n// Sets the validation arbitration and Dispute Timeout Periods\nconstructor(uint VI,uint AI,uint TI){\n  validationInterval=VI;\n  arbitrationInterval=AI;\n  totalBounties=0;\n  TimeOut=TI;\n  owner=msg.sender;\n  cancelCreate=false;\n}\n\n// Sets\nfunction cancelCreation() public {\n  require(msg.sender==owner);\n  if(cancelCreate==false){\n     cancelCreate=true;\n  }else{\n     cancelCreate=false;\n  }\n}\n//Stuct that defines each Bounty Instance\nstruct Bounty{\n  address Arbitor;\n  address creator;\n  string Info;\n  uint registeredPlayers;\n\n  uint payout;\n  mapping(address=>bool) registered;\n  mapping(uint=>address) SubmissionOrder;\n  mapping(address=>Submission) Submissions;\n  //mapping(address=>uint) verified;\n  uint startDate;\n  uint endDate;\n\n\n  string name;\n  bool finished;\n  uint totalSubmissions;\n  address winner;\n}\n\n//Struct that defines each Submission\nstruct Submission{\n  uint time;\n\n  string IPFShash;\n  address sender;\n}\nmodifier isCreator(uint _bounty){\n\nrequire(msg.sender==BountyMap[_bounty].creator);\n_;\n}\nmodifier isArbitor(uint _bounty){\n\nrequire(msg.sender==BountyMap[_bounty].Arbitor);\n_;\n}\n//Determines the Interval where Users can can create Submissions for bounties they are registered for\nmodifier isSubmitable(uint _bounty){\nrequire((now>BountyMap[_bounty].startDate)&&(now<BountyMap[_bounty].endDate));\n_;\n}\n//Determines when the creator can choose a winner for a Bounty\nmodifier isVerifiable(uint _bounty){\nrequire((now>BountyMap[_bounty].endDate)&&(now<(BountyMap[_bounty].endDate+validationInterval)));\n_;\n}\n// Determines the time period when a Bounty can be disputed\nmodifier isDisputable(uint _bounty){\nrequire((now>(BountyMap[_bounty].endDate+validationInterval))\n&&(now<(BountyMap[_bounty].endDate+validationInterval+arbitrationInterval)));\n_;\n}\nmodifier disputeIsResolved(uint _bounty){\n  require(resolveDisputeTimeOut(_bounty));\n  _;\n}\n\nmodifier gameNotStarted(uint _bounty){\n  require(now<BountyMap[_bounty].startDate);\n    _;\n  }\nmodifier isAlive(uint _bounty){\n  require(BountyMap[_bounty].finished==false);\n  _;\n}\n\n\n// Creates a new Bounty belonging to the sender\nfunction CreateBounty(uint _payout,uint Start,uint End,address _judge,string _name,string _info) public payable {\nrequire(cancelCreate==false);\nrequire(msg.value==_payout);\n//require((Start>=now)&&(End>Start));\nBounty memory temp =Bounty(_judge,msg.sender,_info,0,_payout,Start,End,_name,false,0,msg.sender);\nuint total=totalBounties+1;\nBountyMap[total]=temp;\nBountyList[msg.sender].push(total);\ntotalBounties=total;\nGamesToJudge[_judge].push(total);\n}\n// Updates bounty IPFS description\nfunction SetInfo(uint bounty,string _info) public isCreator(bounty) isAlive(bounty) gameNotStarted(bounty){\n\nBounty storage temp=BountyMap[bounty];\n    temp.Info=_info;\n}\n/*Registers a new participant to a Bounty\nCan only be called before a bounty has started*/\nfunction RegisterParticipant(address user,uint bounty) public isCreator(bounty) isAlive(bounty) gameNotStarted(bounty){\n\n  Bounty storage temp=BountyMap[bounty];\n  require(temp.registered[user]==false);\n  temp.registered[user]=true;\n  temp.registeredPlayers+=1;\n  RegisteredBounties[user].push(bounty);\n}\n//Ends Bounty before it starts and returns deposit to its creator\nfunction KillBounty(uint bounty) isCreator(bounty) public gameNotStarted(bounty) isAlive(bounty){\n  Bounty storage temp=BountyMap[bounty];\n  temp.finished=true;\n  killedBounty[bounty]=true;\n  msg.sender.transfer(BountyMap[bounty].payout);\n}\n/*Allows users to submit an IPFS hash containing their submission for a given bounty\n Users can only make a single submission*/\nfunction SubmitBounty(uint _Bounty,string data) public isSubmitable(_Bounty) isAlive(_Bounty){\n  require(BountyMap[_Bounty].registered[msg.sender]==true);\n  require(BountyMap[_Bounty].Submissions[msg.sender].time==0);\n  Submission memory Sub=Submission(now,data,msg.sender);\n  Bounty storage temp=BountyMap[_Bounty];\n  uint count=temp.totalSubmissions+1;\n  temp.Submissions[msg.sender]=Sub;\n  temp.SubmissionOrder[count]=msg.sender;\n  temp.totalSubmissions=count;\n\n}\n//Allows the creator of a bounty to choose a winner for the given bounty\nfunction VerifySubmission(uint bounty,uint submission) public isCreator(bounty) isAlive(bounty) isVerifiable(bounty) returns(address){\n\n  Bounty storage temp=BountyMap[bounty];\n  address user=temp.SubmissionOrder[submission];\n  temp.winner=user;\n  return user;\n}\n\n/*Sets a bounty Disputed Status to true\nrequires the arbitor to resolve the dispute\n*/\nfunction disputeClaim(uint bounty) public isDisputable(bounty) isAlive(bounty) {\n  Bounty memory temp=BountyMap[bounty];\n  require(BountyMap[bounty].registered[msg.sender]==true);\n  require(BountyMap[bounty].Submissions[msg.sender].time!=0);\n  DisputeTimeOut[bounty]=now+TimeOut;\n}\n/* allows a user to upload a hash of an ipfs file outlining the details of their dispute\n Only one upload is allowed per user*/\nfunction disputeDataUpload(uint bounty,string data) public isDisputable(bounty) isAlive(bounty){\n  require(BountyMap[bounty].Submissions[msg.sender].time!=0);\n  require(BountyMap[bounty].registered[msg.sender]==true);\n  require(DisputeDataUploaded[msg.sender]==false);\n  DisputeData[bounty].push(data);\n  DisputeDataUploaded[msg.sender]=true;\n\n}\n// Activates logic to end dispute status in the case where the arbitor fails to perform their job\nfunction resolveDisputeTimeOut(uint bounty) public constant returns (bool){\n  bool b=true;\n  if(DisputeTimeOut[bounty]!=0)\n  b=(now>DisputeTimeOut[bounty]);\n  return b;\n\n}\n\n// returns the nth dispute ipfs hash uploaded\nfunction GetDisputeData(uint bounty,uint n) public constant returns(string){\n  return DisputeData[bounty][n];\n}\n\n// Allows the Bounty arbitor to resolve a dispute by\nfunction ResolveDispute(uint _bounty,uint submission) public   isArbitor(_bounty){\n  require((now<DisputeTimeOut[_bounty])&&(DisputeTimeOut[_bounty]!=0));\n  require(submission<=BountyMap[_bounty].totalSubmissions);\n  Bounty storage temp=BountyMap[_bounty];\n  if(submission==0){\n    temp.winner=temp.creator;\n  }\n  else{\n\n    address user=temp.SubmissionOrder[submission];\n\n    temp.winner=user;\n\n    DisputeTimeOut[_bounty]=0;\n }\n}\n// returns the Submission creator and IPFS hash for a bounty based on submission order start at 1 for the first bounty\nfunction ViewSubmision(uint _bounty,uint submission) public constant returns(string,address,uint){\n  address a= BountyMap[_bounty].SubmissionOrder[submission];\n  return (BountyMap[_bounty].Submissions[a].IPFShash,a,BountyMap[_bounty].Submissions[a].time);\n}\n// allows the chosen winner to withdraw the reward\nfunction WithDrawReward(uint bounty) disputeIsResolved(bounty){\n  require(now>(BountyMap[bounty].endDate+validationInterval+arbitrationInterval));\n  require(msg.sender==BountyMap[bounty].winner);\n  require(BountyMap[bounty].finished==false);\n\n  BountyMap[bounty].finished=true;\n  msg.sender.transfer(BountyMap[bounty].payout);\n}\n\n//returns all paremeters of the Bounty struct\nfunction GetBountyDetails(uint _bounty) public constant returns(address,address,string,uint,uint,uint,uint,string,bool,uint,address){\n  Bounty memory t=BountyMap[_bounty];\n  return(\n    t.Arbitor,\n    t.creator,\n    t.Info,\n    t.registeredPlayers,\n    t.payout,\n    t.startDate,\n    t.endDate,\n    t.name,\n    t.finished,\n    t.totalSubmissions,\n    t.winner);\n  }\n\n  // returns an array of the ids of all bounites an address has  created\n  function getCreatedBounties(address a) public  constant returns(uint[]){\n     return BountyList[a];\n  }\n // returns the total unique bounties a user has created\n  function gettotalCreatedBounties(address a) public constant returns(uint){\n     return BountyList[a].length;\n  }\n  // returns an array of the ids of all bounites an address has been registered\n  function getRegisterdBounties(address a) public constant returns(uint[]){\n     return RegisteredBounties[a];\n  }\n  // returns the total unique bounties an address has been registered for\n  function gettotalRegisteredBounties(address a) public constant returns(uint){\n     return RegisteredBounties[a].length;\n  }\n  // returns total dipsute files uploaded for a given bounty\n  function totalDisputesUploaded(uint bounty) public constant returns(uint){\n    return DisputeData[bounty].length;\n  }\n  function getGamesToJudge(address a) public  constant returns(uint[]){\n    return GamesToJudge[a];\n  }\n  // returns the total number of Bounties an address is registered to judge\n  function gettotalGamesToJudge(address a) public constant returns(uint){\n    return GamesToJudge[a].length;\n  }\n  // returns the unix timestamp for when a dispute times out\n  function getTimeOut(uint _bounty) public constant returns(uint){\n    return DisputeTimeOut[_bounty];\n  }\n  // retuns true if game was killed otherwise false\n  function wasGameKilled(uint _bounty) public  constant returns(bool){\n    return killedBounty[_bounty];\n  }\n  // returns the cancelCreate variable\n  function wasCanceled() constant public returns(bool){\n    return cancelCreate;\n  }\n  /* returns one of the time periods a bounty can be in\n   period 1: Game has been created but not started\n   period 2: Game has started but not ended\n   period 3: Game has ended and is within the interval for validation where a winner can be chosen\n   period 4: Game can be Disputed\n   period 5; Game is completed;\n   period 6: Game  been disputed and is still in the arbitrationInterval\n   period 7: Game is past the past the arbitration int\n   period 8: Game is past the dispute TimeOut which is nonzero\n   */\n  function getTimePeriod(uint _bounty ) public constant returns(uint){\n    require(BountyMap[_bounty].startDate!=0);\n    uint ret=0;\n    if(now<=BountyMap[_bounty].startDate) ret=1;\n    if((now>BountyMap[_bounty].startDate)&&(now<BountyMap[_bounty].endDate)) ret=2;\n    if((now>BountyMap[_bounty].endDate)&&(now<(BountyMap[_bounty].endDate+validationInterval)) ) ret=3;\n    if((now>(BountyMap[_bounty].endDate+validationInterval))&&(now<(BountyMap[_bounty].endDate+validationInterval+arbitrationInterval))) ret=4;\n    if(now>(BountyMap[_bounty].endDate+validationInterval+arbitrationInterval)) ret=5;\n    if((ret==4)&&(DisputeTimeOut[_bounty]!=0)) ret=6;\n    if( (ret==5)&&(now<DisputeTimeOut[_bounty])) ret=7;\n    if((now> DisputeTimeOut[_bounty])&&(DisputeTimeOut[_bounty]!=0)) ret=8;\n\n    return ret;\n  }\n\n}\n",
  "sourcePath": "/home/jjj/IPFS/ScavengerHunt/contracts/PhotoBounty.sol",
  "compiler": {
    "name": "solc",
    "version": "0.4.24+commit.e67f0147.Emscripten.clang"
  },
  "schemaVersion": "2.0.1",
  "updatedAt": "2018-08-27T19:29:24.834Z"
}